{
  "contractName": "Taskcontract",
  "abi": [
    {
      "anonymous": false,
      "inputs": [
        {
          "indexed": false,
          "internalType": "address",
          "name": "sender",
          "type": "address"
        },
        {
          "indexed": false,
          "internalType": "address",
          "name": "recipient",
          "type": "address"
        },
        {
          "indexed": false,
          "internalType": "int256",
          "name": "amount",
          "type": "int256"
        }
      ],
      "name": "TransferFrom",
      "type": "event"
    },
    {
      "inputs": [],
      "name": "balanceOf",
      "outputs": [
        {
          "internalType": "int256",
          "name": "",
          "type": "int256"
        }
      ],
      "stateMutability": "view",
      "type": "function",
      "constant": true
    },
    {
      "inputs": [
        {
          "internalType": "address",
          "name": "_to",
          "type": "address"
        },
        {
          "internalType": "int256",
          "name": "_value",
          "type": "int256"
        }
      ],
      "name": "transferFrom",
      "outputs": [
        {
          "internalType": "bool",
          "name": "success",
          "type": "bool"
        }
      ],
      "stateMutability": "nonpayable",
      "type": "function"
    },
    {
      "inputs": [],
      "name": "getMyTransactions",
      "outputs": [
        {
          "components": [
            {
              "internalType": "address",
              "name": "fromAddress",
              "type": "address"
            },
            {
              "internalType": "address",
              "name": "toAddress",
              "type": "address"
            },
            {
              "internalType": "int256",
              "name": "amount",
              "type": "int256"
            }
          ],
          "internalType": "struct Taskcontract.Transaction[]",
          "name": "",
          "type": "tuple[]"
        }
      ],
      "stateMutability": "view",
      "type": "function",
      "constant": true
    }
  ],
  "bytecode": "0x6080604052606460005534801561001557600080fd5b50610ed6806100256000396000f3fe608060405234801561001057600080fd5b50600436106100415760003560e01c80635825835314610046578063722713f71461007657806397e4ca7014610094575b600080fd5b610060600480360381019061005b9190610a3a565b6100b2565b60405161006d9190610a95565b60405180910390f35b61007e6103d7565b60405161008b9190610abf565b60405180910390f35b61009c610562565b6040516100a99190610be9565b60405180910390f35b600080600054905060005b600180549050811015610235573373ffffffffffffffffffffffffffffffffffffffff16600182815481106100f5576100f4610c0b565b5b906000526020600020906003020160010160009054906101000a900473ffffffffffffffffffffffffffffffffffffffff1673ffffffffffffffffffffffffffffffffffffffff1603610176576001818154811061015657610155610c0b565b5b906000526020600020906003020160020154826101739190610c69565b91505b3373ffffffffffffffffffffffffffffffffffffffff16600182815481106101a1576101a0610c0b565b5b906000526020600020906003020160000160009054906101000a900473ffffffffffffffffffffffffffffffffffffffff1673ffffffffffffffffffffffffffffffffffffffff1603610222576001818154811061020257610201610c0b565b5b9060005260206000209060030201600201548261021f9190610cfd565b91505b808061022d90610d9b565b9150506100bd565b508281136102475760009150506103d1565b3373ffffffffffffffffffffffffffffffffffffffff168473ffffffffffffffffffffffffffffffffffffffff16036102845760009150506103d1565b600160405180606001604052803373ffffffffffffffffffffffffffffffffffffffff1681526020018673ffffffffffffffffffffffffffffffffffffffff16815260200185815250908060018154018082558091505060019003906000526020600020906003020160009091909190915060008201518160000160006101000a81548173ffffffffffffffffffffffffffffffffffffffff021916908373ffffffffffffffffffffffffffffffffffffffff16021790555060208201518160010160006101000a81548173ffffffffffffffffffffffffffffffffffffffff021916908373ffffffffffffffffffffffffffffffffffffffff1602179055506040820151816002015550507ffeaa0e9c8f93420e01c8fbfac46ebf2e743523c226ea6da426a48acb695f11943385856040516103c393929190610df2565b60405180910390a160019150505b92915050565b600080600054905060005b60018054905081101561055a573373ffffffffffffffffffffffffffffffffffffffff166001828154811061041a57610419610c0b565b5b906000526020600020906003020160010160009054906101000a900473ffffffffffffffffffffffffffffffffffffffff1673ffffffffffffffffffffffffffffffffffffffff160361049b576001818154811061047b5761047a610c0b565b5b906000526020600020906003020160020154826104989190610c69565b91505b3373ffffffffffffffffffffffffffffffffffffffff16600182815481106104c6576104c5610c0b565b5b906000526020600020906003020160000160009054906101000a900473ffffffffffffffffffffffffffffffffffffffff1673ffffffffffffffffffffffffffffffffffffffff1603610547576001818154811061052757610526610c0b565b5b906000526020600020906003020160020154826105449190610cfd565b91505b808061055290610d9b565b9150506103e2565b508091505090565b6060600060018054905067ffffffffffffffff81111561058557610584610e29565b5b6040519080825280602002602001820160405280156105be57816020015b6105ab610954565b8152602001906001900390816105a35790505b5090506000805b60018054905081101561089a573373ffffffffffffffffffffffffffffffffffffffff16600182815481106105fd576105fc610c0b565b5b906000526020600020906003020160010160009054906101000a900473ffffffffffffffffffffffffffffffffffffffff1673ffffffffffffffffffffffffffffffffffffffff16036107285760405180606001604052803373ffffffffffffffffffffffffffffffffffffffff1681526020016001838154811061068557610684610c0b565b5b906000526020600020906003020160000160009054906101000a900473ffffffffffffffffffffffffffffffffffffffff1673ffffffffffffffffffffffffffffffffffffffff168152602001600183815481106106e6576106e5610c0b565b5b90600052602060002090600302016002015481525083838151811061070e5761070d610c0b565b5b6020026020010181905250818061072490610d9b565b9250505b3373ffffffffffffffffffffffffffffffffffffffff166001828154811061075357610752610c0b565b5b906000526020600020906003020160000160009054906101000a900473ffffffffffffffffffffffffffffffffffffffff1673ffffffffffffffffffffffffffffffffffffffff16036108875760405180606001604052803373ffffffffffffffffffffffffffffffffffffffff168152602001600183815481106107db576107da610c0b565b5b906000526020600020906003020160010160009054906101000a900473ffffffffffffffffffffffffffffffffffffffff1673ffffffffffffffffffffffffffffffffffffffff1681526020016001838154811061083c5761083b610c0b565b5b90600052602060002090600302016002015461085790610e58565b81525083838151811061086d5761086c610c0b565b5b6020026020010181905250818061088390610d9b565b9250505b808061089290610d9b565b9150506105c5565b5060008167ffffffffffffffff8111156108b7576108b6610e29565b5b6040519080825280602002602001820160405280156108f057816020015b6108dd610954565b8152602001906001900390816108d55790505b50905060005b8281101561094a5783818151811061091157610910610c0b565b5b602002602001015182828151811061092c5761092b610c0b565b5b6020026020010181905250808061094290610d9b565b9150506108f6565b5080935050505090565b6040518060600160405280600073ffffffffffffffffffffffffffffffffffffffff168152602001600073ffffffffffffffffffffffffffffffffffffffff168152602001600081525090565b600080fd5b600073ffffffffffffffffffffffffffffffffffffffff82169050919050565b60006109d1826109a6565b9050919050565b6109e1816109c6565b81146109ec57600080fd5b50565b6000813590506109fe816109d8565b92915050565b6000819050919050565b610a1781610a04565b8114610a2257600080fd5b50565b600081359050610a3481610a0e565b92915050565b60008060408385031215610a5157610a506109a1565b5b6000610a5f858286016109ef565b9250506020610a7085828601610a25565b9150509250929050565b60008115159050919050565b610a8f81610a7a565b82525050565b6000602082019050610aaa6000830184610a86565b92915050565b610ab981610a04565b82525050565b6000602082019050610ad46000830184610ab0565b92915050565b600081519050919050565b600082825260208201905092915050565b6000819050602082019050919050565b610b0f816109c6565b82525050565b610b1e81610a04565b82525050565b606082016000820151610b3a6000850182610b06565b506020820151610b4d6020850182610b06565b506040820151610b606040850182610b15565b50505050565b6000610b728383610b24565b60608301905092915050565b6000602082019050919050565b6000610b9682610ada565b610ba08185610ae5565b9350610bab83610af6565b8060005b83811015610bdc578151610bc38882610b66565b9750610bce83610b7e565b925050600181019050610baf565b5085935050505092915050565b60006020820190508181036000830152610c038184610b8b565b905092915050565b7f4e487b7100000000000000000000000000000000000000000000000000000000600052603260045260246000fd5b7f4e487b7100000000000000000000000000000000000000000000000000000000600052601160045260246000fd5b6000610c7482610a04565b9150610c7f83610a04565b9250817f7fffffffffffffffffffffffffffffffffffffffffffffffffffffffffffffff03831360008312151615610cba57610cb9610c3a565b5b817f8000000000000000000000000000000000000000000000000000000000000000038312600083121615610cf257610cf1610c3a565b5b828201905092915050565b6000610d0882610a04565b9150610d1383610a04565b9250827f800000000000000000000000000000000000000000000000000000000000000001821260008412151615610d4e57610d4d610c3a565b5b827f7fffffffffffffffffffffffffffffffffffffffffffffffffffffffffffffff018213600084121615610d8657610d85610c3a565b5b828203905092915050565b6000819050919050565b6000610da682610d91565b91507fffffffffffffffffffffffffffffffffffffffffffffffffffffffffffffffff8203610dd857610dd7610c3a565b5b600182019050919050565b610dec816109c6565b82525050565b6000606082019050610e076000830186610de3565b610e146020830185610de3565b610e216040830184610ab0565b949350505050565b7f4e487b7100000000000000000000000000000000000000000000000000000000600052604160045260246000fd5b6000610e6382610a04565b91507f80000000000000000000000000000000000000000000000000000000000000008203610e9557610e94610c3a565b5b81600003905091905056fea2646970667358221220c579a7da3fb2bde409979e199ca7a6825ffb19e2e7b64dcbd6c21c13be8726a264736f6c634300080f0033",
  "immutableReferences": {},
  "source": "// SPDX-License-Identifier: MIT\npragma solidity 0.8.15;\n\n/// @dev Identify the contract to deploy on blockchain network \n/// @dev Each function in this contract da vo rule of ERC20 \n/// @dev initAsset - The inital amount of asset of each account, due to anable to code the minting action and reward.  \ncontract Taskcontract {\n\n  int initAsset = 100; \n\n\n  event TransferFrom(address sender, address recipient, int amount);\n\n  /// @dev Transaction - The struct of transaction\n  /// @param {address} fromAddress - The address of the sender\n  /// @param {address} toAddress - The address of the receiver\n  /// @param {uint} amount - The amount of asset that transferred\n  /// @param {uint} assetOfSender - The amount of asset of the sender, to optimize the caculation\n\n  struct Transaction{\n    address fromAddress;\n    address toAddress;\n    int amount; \n  }\n\n  Transaction[] private transactions; \n  mapping(address => int) private tokenToOwner;\n\n  /// @dev balanceOf - The function to get the balance of asset of each account\n  /// @return the balance of messenger sender  \n  function balanceOf() external view returns(int){\n    int ret = initAsset; \n    for ( uint i = 0; i< transactions.length; i++ ){\n      if (transactions[i].toAddress == msg.sender )\n        ret += transactions[i].amount; \n\n      if ( transactions[i].fromAddress == msg.sender )\n        ret -= transactions[i].amount; \n    }\n    return ret ;\n  }\n\n\n  // {address} _to msg.sender transfer asset to _to \n  // {int} _value amount of asset to transfer \n  // emit the transaction to blockchain flatform \n  /// @dev transferFrom - The function to transfer asset from one account to another\n  /// @return success if the transferFrom is successful  \n  function transferFrom(address _to, int _value) external returns (bool success) {\n\n    int balance = initAsset;\n    for ( uint i = 0; i< transactions.length; i++ ){\n      if (transactions[i].toAddress == msg.sender )\n        balance += transactions[i].amount; \n\n      if ( transactions[i].fromAddress == msg.sender )\n        balance -= transactions[i].amount; \n    }\n\n    if ( balance <= _value ) return false; \n\n    if ( _to == msg.sender ) return false;\n\n    transactions.push(Transaction(msg.sender, _to, _value)); \n\n    emit TransferFrom(msg.sender, _to, _value);\n    \n    return true; \n  }\n\n\n  /// @dev get all transactions of the sender\n  /// @return all transactions of the sender, Transaction type \n  function getMyTransactions() external view returns(Transaction[] memory){\n    Transaction[] memory temporary = new Transaction[](transactions.length) ; \n    uint counter = 0; \n    for ( uint i = 0; i< transactions.length; i++ ){\n      if (transactions[i].toAddress == msg.sender ){\n        temporary[counter] = Transaction(msg.sender,transactions[i].fromAddress, transactions[i].amount);\n        counter++; \n      } \n\n      if ( transactions[i].fromAddress == msg.sender ){\n        temporary[counter] = Transaction(msg.sender, transactions[i].toAddress, -transactions[i].amount);\n        counter++; \n      }\n    }\n    Transaction[] memory result = new Transaction[](counter);\n    for (uint i = 0; i<counter; i++)\n      result[i] = temporary[i];\n    return result; \n  }\n}\n",
  "sourcePath": "D:\\Code_place\\blockchain\\wallet\\backend\\contracts\\TaskContract.sol",
  "compiler": {
    "name": "solc",
    "version": "0.8.15+commit.e14f2714.Emscripten.clang"
  },
  "schemaVersion": "3.4.16",
  "updatedAt": "2024-05-20T06:59:14.567Z",
  "networkType": "ethereum",
  "devdoc": {
    "details": "Identify the contract to deploy on blockchain network Each function in this contract da vo rule of ERC20 initAsset - The inital amount of asset of each account, due to anable to code the minting action and reward.  ",
    "kind": "dev",
    "methods": {
      "balanceOf()": {
        "details": "balanceOf - The function to get the balance of asset of each account",
        "returns": {
          "_0": "the balance of messenger sender  "
        }
      },
      "getMyTransactions()": {
        "details": "get all transactions of the sender",
        "returns": {
          "_0": "all transactions of the sender, Transaction type "
        }
      },
      "transferFrom(address,int256)": {
        "details": "transferFrom - The function to transfer asset from one account to another",
        "returns": {
          "success": "if the transferFrom is successful  "
        }
      }
    },
    "version": 1
  },
  "userdoc": {
    "kind": "user",
    "methods": {},
    "version": 1
  }
}