{
  "contractName": "Test",
  "abi": [
    {
      "inputs": [
        {
          "internalType": "uint256",
          "name": "_num",
          "type": "uint256"
        }
      ],
      "name": "sqrt",
      "outputs": [
        {
          "internalType": "uint256",
          "name": "",
          "type": "uint256"
        }
      ],
      "stateMutability": "pure",
      "type": "function"
    },
    {
      "inputs": [],
      "name": "add",
      "outputs": [
        {
          "internalType": "uint256",
          "name": "",
          "type": "uint256"
        }
      ],
      "stateMutability": "pure",
      "type": "function"
    }
  ],
  "bytecode": "0x608060405234801561001057600080fd5b506103a8806100206000396000f3fe608060405234801561001057600080fd5b50600436106100365760003560e01c80634f2be91f1461003b578063677342ce14610059575b600080fd5b610043610089565b60405161005091906100e9565b60405180910390f35b610073600480360381019061006e9190610135565b6100b7565b60405161008091906100e9565b60405180910390f35b600080600a9050600060109050600081836100a49190610191565b90506100af816100b7565b935050505090565b60006002826100c69190610327565b9150819050919050565b6000819050919050565b6100e3816100d0565b82525050565b60006020820190506100fe60008301846100da565b92915050565b600080fd5b610112816100d0565b811461011d57600080fd5b50565b60008135905061012f81610109565b92915050565b60006020828403121561014b5761014a610104565b5b600061015984828501610120565b91505092915050565b7f4e487b7100000000000000000000000000000000000000000000000000000000600052601160045260246000fd5b600061019c826100d0565b91506101a7836100d0565b9250827fffffffffffffffffffffffffffffffffffffffffffffffffffffffffffffffff038211156101dc576101db610162565b5b828201905092915050565b60008160011c9050919050565b6000808291508390505b600185111561023e5780860481111561021a57610219610162565b5b60018516156102295780820291505b8081029050610237856101e7565b94506101fe565b94509492505050565b6000826102575760019050610313565b816102655760009050610313565b816001811461027b5760028114610285576102b4565b6001915050610313565b60ff84111561029757610296610162565b5b8360020a9150848211156102ae576102ad610162565b5b50610313565b5060208310610133831016604e8410600b84101617156102e95782820a9050838111156102e4576102e3610162565b5b610313565b6102f684848460016101f4565b9250905081840481111561030d5761030c610162565b5b81810290505b9392505050565b600060ff82169050919050565b6000610332826100d0565b915061033d8361031a565b925061036a7fffffffffffffffffffffffffffffffffffffffffffffffffffffffffffffffff8484610247565b90509291505056fea26469706673582212208e1ed909f18febd9ab7d8136a280d1337bb6db918d738b866d9fbc06a4a3ea3864736f6c634300080f0033",
  "immutableReferences": {},
  "source": "// SPDX-License-Identifier: MIT\npragma solidity 0.8.15;\ncontract Test {\n    //Defining public pure sqrt function\n    function sqrt(uint _num) public pure returns(uint){\n       _num = _num ** 2;\n       return _num;\n    }\n    // Defining a public pure function to demonstrate\n    // calling of sqrt function\n    function add() public pure returns(uint){\n      uint num1 = 10; \n      uint num2 = 16;\n      uint sum = num1 + num2;\n      return sqrt(sum); // calling function\n   }\n}",
  "sourcePath": "/home/runner/Solidity-Wallet/backend/contracts/TaskContract.sol",
  "compiler": {
    "name": "solc",
    "version": "0.8.15+commit.e14f2714.Emscripten.clang"
  },
  "schemaVersion": "3.4.8",
  "updatedAt": "2024-05-16T02:51:25.852Z",
  "devdoc": {
    "kind": "dev",
    "methods": {},
    "version": 1
  },
  "userdoc": {
    "kind": "user",
    "methods": {},
    "version": 1
  }
}